{
  "_format": "hh-sol-artifact-1",
  "contractName": "DidLabBadge",
  "sourceName": "contracts/DidLabBadge.sol",
  "abi": [
    {
      "inputs": [
        {
          "internalType": "address",
          "name": "initialOwner",
          "type": "address"
        }
      ],
      "stateMutability": "nonpayable",
      "type": "constructor"
    },
    {
      "inputs": [
        {
          "internalType": "address",
          "name": "sender",
          "type": "address"
        },
        {
          "internalType": "uint256",
          "name": "tokenId",
          "type": "uint256"
        },
        {
          "internalType": "address",
          "name": "owner",
          "type": "address"
        }
      ],
      "name": "ERC721IncorrectOwner",
      "type": "error"
    },
    {
      "inputs": [
        {
          "internalType": "address",
          "name": "operator",
          "type": "address"
        },
        {
          "internalType": "uint256",
          "name": "tokenId",
          "type": "uint256"
        }
      ],
      "name": "ERC721InsufficientApproval",
      "type": "error"
    },
    {
      "inputs": [
        {
          "internalType": "address",
          "name": "approver",
          "type": "address"
        }
      ],
      "name": "ERC721InvalidApprover",
      "type": "error"
    },
    {
      "inputs": [
        {
          "internalType": "address",
          "name": "operator",
          "type": "address"
        }
      ],
      "name": "ERC721InvalidOperator",
      "type": "error"
    },
    {
      "inputs": [
        {
          "internalType": "address",
          "name": "owner",
          "type": "address"
        }
      ],
      "name": "ERC721InvalidOwner",
      "type": "error"
    },
    {
      "inputs": [
        {
          "internalType": "address",
          "name": "receiver",
          "type": "address"
        }
      ],
      "name": "ERC721InvalidReceiver",
      "type": "error"
    },
    {
      "inputs": [
        {
          "internalType": "address",
          "name": "sender",
          "type": "address"
        }
      ],
      "name": "ERC721InvalidSender",
      "type": "error"
    },
    {
      "inputs": [
        {
          "internalType": "uint256",
          "name": "tokenId",
          "type": "uint256"
        }
      ],
      "name": "ERC721NonexistentToken",
      "type": "error"
    },
    {
      "inputs": [
        {
          "internalType": "address",
          "name": "owner",
          "type": "address"
        }
      ],
      "name": "OwnableInvalidOwner",
      "type": "error"
    },
    {
      "inputs": [
        {
          "internalType": "address",
          "name": "account",
          "type": "address"
        }
      ],
      "name": "OwnableUnauthorizedAccount",
      "type": "error"
    },
    {
      "anonymous": false,
      "inputs": [
        {
          "indexed": true,
          "internalType": "address",
          "name": "owner",
          "type": "address"
        },
        {
          "indexed": true,
          "internalType": "address",
          "name": "approved",
          "type": "address"
        },
        {
          "indexed": true,
          "internalType": "uint256",
          "name": "tokenId",
          "type": "uint256"
        }
      ],
      "name": "Approval",
      "type": "event"
    },
    {
      "anonymous": false,
      "inputs": [
        {
          "indexed": true,
          "internalType": "address",
          "name": "owner",
          "type": "address"
        },
        {
          "indexed": true,
          "internalType": "address",
          "name": "operator",
          "type": "address"
        },
        {
          "indexed": false,
          "internalType": "bool",
          "name": "approved",
          "type": "bool"
        }
      ],
      "name": "ApprovalForAll",
      "type": "event"
    },
    {
      "anonymous": false,
      "inputs": [
        {
          "indexed": true,
          "internalType": "address",
          "name": "previousOwner",
          "type": "address"
        },
        {
          "indexed": true,
          "internalType": "address",
          "name": "newOwner",
          "type": "address"
        }
      ],
      "name": "OwnershipTransferred",
      "type": "event"
    },
    {
      "anonymous": false,
      "inputs": [
        {
          "indexed": true,
          "internalType": "address",
          "name": "from",
          "type": "address"
        },
        {
          "indexed": true,
          "internalType": "address",
          "name": "to",
          "type": "address"
        },
        {
          "indexed": true,
          "internalType": "uint256",
          "name": "tokenId",
          "type": "uint256"
        }
      ],
      "name": "Transfer",
      "type": "event"
    },
    {
      "inputs": [
        {
          "internalType": "address",
          "name": "to",
          "type": "address"
        },
        {
          "internalType": "uint256",
          "name": "tokenId",
          "type": "uint256"
        }
      ],
      "name": "approve",
      "outputs": [],
      "stateMutability": "nonpayable",
      "type": "function"
    },
    {
      "inputs": [
        {
          "internalType": "address",
          "name": "owner",
          "type": "address"
        }
      ],
      "name": "balanceOf",
      "outputs": [
        {
          "internalType": "uint256",
          "name": "",
          "type": "uint256"
        }
      ],
      "stateMutability": "view",
      "type": "function"
    },
    {
      "inputs": [
        {
          "internalType": "uint256",
          "name": "tokenId",
          "type": "uint256"
        }
      ],
      "name": "getApproved",
      "outputs": [
        {
          "internalType": "address",
          "name": "",
          "type": "address"
        }
      ],
      "stateMutability": "view",
      "type": "function"
    },
    {
      "inputs": [
        {
          "internalType": "address",
          "name": "owner",
          "type": "address"
        },
        {
          "internalType": "address",
          "name": "operator",
          "type": "address"
        }
      ],
      "name": "isApprovedForAll",
      "outputs": [
        {
          "internalType": "bool",
          "name": "",
          "type": "bool"
        }
      ],
      "stateMutability": "view",
      "type": "function"
    },
    {
      "inputs": [
        {
          "internalType": "address",
          "name": "to",
          "type": "address"
        },
        {
          "internalType": "string",
          "name": "uri",
          "type": "string"
        }
      ],
      "name": "mintTo",
      "outputs": [
        {
          "internalType": "uint256",
          "name": "tokenId",
          "type": "uint256"
        }
      ],
      "stateMutability": "nonpayable",
      "type": "function"
    },
    {
      "inputs": [],
      "name": "name",
      "outputs": [
        {
          "internalType": "string",
          "name": "",
          "type": "string"
        }
      ],
      "stateMutability": "view",
      "type": "function"
    },
    {
      "inputs": [],
      "name": "nextId",
      "outputs": [
        {
          "internalType": "uint256",
          "name": "",
          "type": "uint256"
        }
      ],
      "stateMutability": "view",
      "type": "function"
    },
    {
      "inputs": [],
      "name": "owner",
      "outputs": [
        {
          "internalType": "address",
          "name": "",
          "type": "address"
        }
      ],
      "stateMutability": "view",
      "type": "function"
    },
    {
      "inputs": [
        {
          "internalType": "uint256",
          "name": "tokenId",
          "type": "uint256"
        }
      ],
      "name": "ownerOf",
      "outputs": [
        {
          "internalType": "address",
          "name": "",
          "type": "address"
        }
      ],
      "stateMutability": "view",
      "type": "function"
    },
    {
      "inputs": [],
      "name": "renounceOwnership",
      "outputs": [],
      "stateMutability": "nonpayable",
      "type": "function"
    },
    {
      "inputs": [
        {
          "internalType": "address",
          "name": "from",
          "type": "address"
        },
        {
          "internalType": "address",
          "name": "to",
          "type": "address"
        },
        {
          "internalType": "uint256",
          "name": "tokenId",
          "type": "uint256"
        }
      ],
      "name": "safeTransferFrom",
      "outputs": [],
      "stateMutability": "nonpayable",
      "type": "function"
    },
    {
      "inputs": [
        {
          "internalType": "address",
          "name": "from",
          "type": "address"
        },
        {
          "internalType": "address",
          "name": "to",
          "type": "address"
        },
        {
          "internalType": "uint256",
          "name": "tokenId",
          "type": "uint256"
        },
        {
          "internalType": "bytes",
          "name": "data",
          "type": "bytes"
        }
      ],
      "name": "safeTransferFrom",
      "outputs": [],
      "stateMutability": "nonpayable",
      "type": "function"
    },
    {
      "inputs": [
        {
          "internalType": "address",
          "name": "operator",
          "type": "address"
        },
        {
          "internalType": "bool",
          "name": "approved",
          "type": "bool"
        }
      ],
      "name": "setApprovalForAll",
      "outputs": [],
      "stateMutability": "nonpayable",
      "type": "function"
    },
    {
      "inputs": [
        {
          "internalType": "bytes4",
          "name": "interfaceId",
          "type": "bytes4"
        }
      ],
      "name": "supportsInterface",
      "outputs": [
        {
          "internalType": "bool",
          "name": "",
          "type": "bool"
        }
      ],
      "stateMutability": "view",
      "type": "function"
    },
    {
      "inputs": [],
      "name": "symbol",
      "outputs": [
        {
          "internalType": "string",
          "name": "",
          "type": "string"
        }
      ],
      "stateMutability": "view",
      "type": "function"
    },
    {
      "inputs": [
        {
          "internalType": "uint256",
          "name": "tokenId",
          "type": "uint256"
        }
      ],
      "name": "tokenURI",
      "outputs": [
        {
          "internalType": "string",
          "name": "",
          "type": "string"
        }
      ],
      "stateMutability": "view",
      "type": "function"
    },
    {
      "inputs": [
        {
          "internalType": "address",
          "name": "from",
          "type": "address"
        },
        {
          "internalType": "address",
          "name": "to",
          "type": "address"
        },
        {
          "internalType": "uint256",
          "name": "tokenId",
          "type": "uint256"
        }
      ],
      "name": "transferFrom",
      "outputs": [],
      "stateMutability": "nonpayable",
      "type": "function"
    },
    {
      "inputs": [
        {
          "internalType": "address",
          "name": "newOwner",
          "type": "address"
        }
      ],
      "name": "transferOwnership",
      "outputs": [],
      "stateMutability": "nonpayable",
      "type": "function"
    }
  ],
  "bytecode": "0x608060405260016007553480156200001657600080fd5b50604051620029a4380380620029a483398181016040528101906200003c91906200028d565b806040518060400160405280601681526020017f4449444c6162204861636b6174686f6e204261646765000000000000000000008152506040518060400160405280600481526020017f444c4842000000000000000000000000000000000000000000000000000000008152508160009081620000ba919062000539565b508060019081620000cc919062000539565b505050600073ffffffffffffffffffffffffffffffffffffffff168173ffffffffffffffffffffffffffffffffffffffff1603620001445760006040517f1e4fbdf70000000000000000000000000000000000000000000000000000000081526004016200013b919062000631565b60405180910390fd5b62000155816200015d60201b60201c565b50506200064e565b6000600660009054906101000a900473ffffffffffffffffffffffffffffffffffffffff16905081600660006101000a81548173ffffffffffffffffffffffffffffffffffffffff021916908373ffffffffffffffffffffffffffffffffffffffff1602179055508173ffffffffffffffffffffffffffffffffffffffff168173ffffffffffffffffffffffffffffffffffffffff167f8be0079c531659141344cd1fd0a4f28419497f9722a3daafe3b4186f6b6457e060405160405180910390a35050565b600080fd5b600073ffffffffffffffffffffffffffffffffffffffff82169050919050565b6000620002558262000228565b9050919050565b620002678162000248565b81146200027357600080fd5b50565b60008151905062000287816200025c565b92915050565b600060208284031215620002a657620002a562000223565b5b6000620002b68482850162000276565b91505092915050565b600081519050919050565b7f4e487b7100000000000000000000000000000000000000000000000000000000600052604160045260246000fd5b7f4e487b7100000000000000000000000000000000000000000000000000000000600052602260045260246000fd5b600060028204905060018216806200034157607f821691505b602082108103620003575762000356620002f9565b5b50919050565b60008190508160005260206000209050919050565b60006020601f8301049050919050565b600082821b905092915050565b600060088302620003c17fffffffffffffffffffffffffffffffffffffffffffffffffffffffffffffffff8262000382565b620003cd868362000382565b95508019841693508086168417925050509392505050565b6000819050919050565b6000819050919050565b60006200041a620004146200040e84620003e5565b620003ef565b620003e5565b9050919050565b6000819050919050565b6200043683620003f9565b6200044e620004458262000421565b8484546200038f565b825550505050565b600090565b6200046562000456565b620004728184846200042b565b505050565b5b818110156200049a576200048e6000826200045b565b60018101905062000478565b5050565b601f821115620004e957620004b3816200035d565b620004be8462000372565b81016020851015620004ce578190505b620004e6620004dd8562000372565b83018262000477565b50505b505050565b600082821c905092915050565b60006200050e60001984600802620004ee565b1980831691505092915050565b6000620005298383620004fb565b9150826002028217905092915050565b6200054482620002bf565b67ffffffffffffffff81111562000560576200055f620002ca565b5b6200056c825462000328565b620005798282856200049e565b600060209050601f831160018114620005b157600084156200059c578287015190505b620005a885826200051b565b86555062000618565b601f198416620005c1866200035d565b60005b82811015620005eb57848901518255600182019150602085019450602081019050620005c4565b868310156200060b578489015162000607601f891682620004fb565b8355505b6001600288020188555050505b505050505050565b6200062b8162000248565b82525050565b600060208201905062000648600083018462000620565b92915050565b612346806200065e6000396000f3fe608060405234801561001057600080fd5b50600436106101155760003560e01c806370a08231116100a2578063a22cb46511610071578063a22cb465146102e0578063b88d4fde146102fc578063c87b56dd14610318578063e985e9c514610348578063f2fde38b1461037857610115565b806370a082311461026a578063715018a61461029a5780638da5cb5b146102a457806395d89b41146102c257610115565b8063095ea7b3116100e9578063095ea7b3146101c857806323b872dd146101e457806342842e0e1461020057806361b8ce8c1461021c5780636352211e1461023a57610115565b806275a3171461011a57806301ffc9a71461014a57806306fdde031461017a578063081812fc14610198575b600080fd5b610134600480360381019061012f919061190d565b610394565b6040516101419190611982565b60405180910390f35b610164600480360381019061015f91906119f5565b6103e8565b6040516101719190611a3d565b60405180910390f35b6101826104ca565b60405161018f9190611ad7565b60405180910390f35b6101b260048036038101906101ad9190611b25565b61055c565b6040516101bf9190611b61565b60405180910390f35b6101e260048036038101906101dd9190611b7c565b610578565b005b6101fe60048036038101906101f99190611bbc565b61058e565b005b61021a60048036038101906102159190611bbc565b610690565b005b6102246106b0565b6040516102319190611982565b60405180910390f35b610254600480360381019061024f9190611b25565b6106b6565b6040516102619190611b61565b60405180910390f35b610284600480360381019061027f9190611c0f565b6106c8565b6040516102919190611982565b60405180910390f35b6102a2610782565b005b6102ac610796565b6040516102b99190611b61565b60405180910390f35b6102ca6107c0565b6040516102d79190611ad7565b60405180910390f35b6102fa60048036038101906102f59190611c68565b610852565b005b61031660048036038101906103119190611d49565b610868565b005b610332600480360381019061032d9190611b25565b61088d565b60405161033f9190611ad7565b60405180910390f35b610362600480360381019061035d9190611dcc565b6109a9565b60405161036f9190611a3d565b60405180910390f35b610392600480360381019061038d9190611c0f565b610a3d565b005b600061039e610ac3565b600760008154809291906103b190611e3b565b9190505590506103c18382610b4a565b816008600083815260200190815260200160002090816103e1919061208f565b5092915050565b60007f80ac58cd000000000000000000000000000000000000000000000000000000007bffffffffffffffffffffffffffffffffffffffffffffffffffffffff1916827bffffffffffffffffffffffffffffffffffffffffffffffffffffffff191614806104b357507f5b5e139f000000000000000000000000000000000000000000000000000000007bffffffffffffffffffffffffffffffffffffffffffffffffffffffff1916827bffffffffffffffffffffffffffffffffffffffffffffffffffffffff1916145b806104c357506104c282610b68565b5b9050919050565b6060600080546104d990611eb2565b80601f016020809104026020016040519081016040528092919081815260200182805461050590611eb2565b80156105525780601f1061052757610100808354040283529160200191610552565b820191906000526020600020905b81548152906001019060200180831161053557829003601f168201915b5050505050905090565b600061056782610bd2565b5061057182610c5a565b9050919050565b61058a8282610585610c97565b610c9f565b5050565b600073ffffffffffffffffffffffffffffffffffffffff168273ffffffffffffffffffffffffffffffffffffffff16036106005760006040517f64a0ae920000000000000000000000000000000000000000000000000000000081526004016105f79190611b61565b60405180910390fd5b6000610614838361060f610c97565b610cb1565b90508373ffffffffffffffffffffffffffffffffffffffff168173ffffffffffffffffffffffffffffffffffffffff161461068a578382826040517f64283d7b00000000000000000000000000000000000000000000000000000000815260040161068193929190612161565b60405180910390fd5b50505050565b6106ab83838360405180602001604052806000815250610868565b505050565b60075481565b60006106c182610bd2565b9050919050565b60008073ffffffffffffffffffffffffffffffffffffffff168273ffffffffffffffffffffffffffffffffffffffff160361073b5760006040517f89c62b640000000000000000000000000000000000000000000000000000000081526004016107329190611b61565b60405180910390fd5b600360008373ffffffffffffffffffffffffffffffffffffffff1673ffffffffffffffffffffffffffffffffffffffff168152602001908152602001600020549050919050565b61078a610ac3565b6107946000610ecb565b565b6000600660009054906101000a900473ffffffffffffffffffffffffffffffffffffffff16905090565b6060600180546107cf90611eb2565b80601f01602080910402602001604051908101604052809291908181526020018280546107fb90611eb2565b80156108485780601f1061081d57610100808354040283529160200191610848565b820191906000526020600020905b81548152906001019060200180831161082b57829003601f168201915b5050505050905090565b61086461085d610c97565b8383610f91565b5050565b61087384848461058e565b61088761087e610c97565b85858585611100565b50505050565b6060600073ffffffffffffffffffffffffffffffffffffffff166108b0836112b1565b73ffffffffffffffffffffffffffffffffffffffff1603610906576040517f08c379a00000000000000000000000000000000000000000000000000000000081526004016108fd906121e4565b60405180910390fd5b60086000838152602001908152602001600020805461092490611eb2565b80601f016020809104026020016040519081016040528092919081815260200182805461095090611eb2565b801561099d5780601f106109725761010080835404028352916020019161099d565b820191906000526020600020905b81548152906001019060200180831161098057829003601f168201915b50505050509050919050565b6000600560008473ffffffffffffffffffffffffffffffffffffffff1673ffffffffffffffffffffffffffffffffffffffff16815260200190815260200160002060008373ffffffffffffffffffffffffffffffffffffffff1673ffffffffffffffffffffffffffffffffffffffff16815260200190815260200160002060009054906101000a900460ff16905092915050565b610a45610ac3565b600073ffffffffffffffffffffffffffffffffffffffff168173ffffffffffffffffffffffffffffffffffffffff1603610ab75760006040517f1e4fbdf7000000000000000000000000000000000000000000000000000000008152600401610aae9190611b61565b60405180910390fd5b610ac081610ecb565b50565b610acb610c97565b73ffffffffffffffffffffffffffffffffffffffff16610ae9610796565b73ffffffffffffffffffffffffffffffffffffffff1614610b4857610b0c610c97565b6040517f118cdaa7000000000000000000000000000000000000000000000000000000008152600401610b3f9190611b61565b60405180910390fd5b565b610b648282604051806020016040528060008152506112ee565b5050565b60007f01ffc9a7000000000000000000000000000000000000000000000000000000007bffffffffffffffffffffffffffffffffffffffffffffffffffffffff1916827bffffffffffffffffffffffffffffffffffffffffffffffffffffffff1916149050919050565b600080610bde836112b1565b9050600073ffffffffffffffffffffffffffffffffffffffff168173ffffffffffffffffffffffffffffffffffffffff1603610c5157826040517f7e273289000000000000000000000000000000000000000000000000000000008152600401610c489190611982565b60405180910390fd5b80915050919050565b60006004600083815260200190815260200160002060009054906101000a900473ffffffffffffffffffffffffffffffffffffffff169050919050565b600033905090565b610cac8383836001611312565b505050565b600080610cbd846112b1565b9050600073ffffffffffffffffffffffffffffffffffffffff168373ffffffffffffffffffffffffffffffffffffffff1614610cff57610cfe8184866114d7565b5b600073ffffffffffffffffffffffffffffffffffffffff168173ffffffffffffffffffffffffffffffffffffffff1614610d9057610d41600085600080611312565b6001600360008373ffffffffffffffffffffffffffffffffffffffff1673ffffffffffffffffffffffffffffffffffffffff168152602001908152602001600020600082825403925050819055505b600073ffffffffffffffffffffffffffffffffffffffff168573ffffffffffffffffffffffffffffffffffffffff1614610e13576001600360008773ffffffffffffffffffffffffffffffffffffffff1673ffffffffffffffffffffffffffffffffffffffff168152602001908152602001600020600082825401925050819055505b846002600086815260200190815260200160002060006101000a81548173ffffffffffffffffffffffffffffffffffffffff021916908373ffffffffffffffffffffffffffffffffffffffff160217905550838573ffffffffffffffffffffffffffffffffffffffff168273ffffffffffffffffffffffffffffffffffffffff167fddf252ad1be2c89b69c2b068fc378daa952ba7f163c4a11628f55a4df523b3ef60405160405180910390a4809150509392505050565b6000600660009054906101000a900473ffffffffffffffffffffffffffffffffffffffff16905081600660006101000a81548173ffffffffffffffffffffffffffffffffffffffff021916908373ffffffffffffffffffffffffffffffffffffffff1602179055508173ffffffffffffffffffffffffffffffffffffffff168173ffffffffffffffffffffffffffffffffffffffff167f8be0079c531659141344cd1fd0a4f28419497f9722a3daafe3b4186f6b6457e060405160405180910390a35050565b600073ffffffffffffffffffffffffffffffffffffffff168273ffffffffffffffffffffffffffffffffffffffff160361100257816040517f5b08ba18000000000000000000000000000000000000000000000000000000008152600401610ff99190611b61565b60405180910390fd5b80600560008573ffffffffffffffffffffffffffffffffffffffff1673ffffffffffffffffffffffffffffffffffffffff16815260200190815260200160002060008473ffffffffffffffffffffffffffffffffffffffff1673ffffffffffffffffffffffffffffffffffffffff16815260200190815260200160002060006101000a81548160ff0219169083151502179055508173ffffffffffffffffffffffffffffffffffffffff168373ffffffffffffffffffffffffffffffffffffffff167f17307eab39ab6107e8899845ad3d59bd9653f200f220920489ca2b5937696c31836040516110f39190611a3d565b60405180910390a3505050565b60008373ffffffffffffffffffffffffffffffffffffffff163b11156112aa578273ffffffffffffffffffffffffffffffffffffffff1663150b7a02868685856040518563ffffffff1660e01b815260040161115f9493929190612259565b6020604051808303816000875af192505050801561119b57506040513d601f19601f8201168201806040525081019061119891906122ba565b60015b61121f573d80600081146111cb576040519150601f19603f3d011682016040523d82523d6000602084013e6111d0565b606091505b50600081510361121757836040517f64a0ae9200000000000000000000000000000000000000000000000000000000815260040161120e9190611b61565b60405180910390fd5b805160208201fd5b63150b7a0260e01b7bffffffffffffffffffffffffffffffffffffffffffffffffffffffff1916817bffffffffffffffffffffffffffffffffffffffffffffffffffffffff1916146112a857836040517f64a0ae9200000000000000000000000000000000000000000000000000000000815260040161129f9190611b61565b60405180910390fd5b505b5050505050565b60006002600083815260200190815260200160002060009054906101000a900473ffffffffffffffffffffffffffffffffffffffff169050919050565b6112f8838361159b565b61130d611303610c97565b6000858585611100565b505050565b808061134b5750600073ffffffffffffffffffffffffffffffffffffffff168273ffffffffffffffffffffffffffffffffffffffff1614155b1561147f57600061135b84610bd2565b9050600073ffffffffffffffffffffffffffffffffffffffff168373ffffffffffffffffffffffffffffffffffffffff16141580156113c657508273ffffffffffffffffffffffffffffffffffffffff168173ffffffffffffffffffffffffffffffffffffffff1614155b80156113d957506113d781846109a9565b155b1561141b57826040517fa9fbf51f0000000000000000000000000000000000000000000000000000000081526004016114129190611b61565b60405180910390fd5b811561147d57838573ffffffffffffffffffffffffffffffffffffffff168273ffffffffffffffffffffffffffffffffffffffff167f8c5be1e5ebec7d5bd14f71427d1e84f3dd0314c0f7b2291e5b200ac8c7c3b92560405160405180910390a45b505b836004600085815260200190815260200160002060006101000a81548173ffffffffffffffffffffffffffffffffffffffff021916908373ffffffffffffffffffffffffffffffffffffffff16021790555050505050565b6114e2838383611694565b61159657600073ffffffffffffffffffffffffffffffffffffffff168373ffffffffffffffffffffffffffffffffffffffff160361155757806040517f7e27328900000000000000000000000000000000000000000000000000000000815260040161154e9190611982565b60405180910390fd5b81816040517f177e802f00000000000000000000000000000000000000000000000000000000815260040161158d9291906122e7565b60405180910390fd5b505050565b600073ffffffffffffffffffffffffffffffffffffffff168273ffffffffffffffffffffffffffffffffffffffff160361160d5760006040517f64a0ae920000000000000000000000000000000000000000000000000000000081526004016116049190611b61565b60405180910390fd5b600061161b83836000610cb1565b9050600073ffffffffffffffffffffffffffffffffffffffff168173ffffffffffffffffffffffffffffffffffffffff161461168f5760006040517f73c6ac6e0000000000000000000000000000000000000000000000000000000081526004016116869190611b61565b60405180910390fd5b505050565b60008073ffffffffffffffffffffffffffffffffffffffff168373ffffffffffffffffffffffffffffffffffffffff161415801561174c57508273ffffffffffffffffffffffffffffffffffffffff168473ffffffffffffffffffffffffffffffffffffffff16148061170d575061170c84846109a9565b5b8061174b57508273ffffffffffffffffffffffffffffffffffffffff1661173383610c5a565b73ffffffffffffffffffffffffffffffffffffffff16145b5b90509392505050565b6000604051905090565b600080fd5b600080fd5b600073ffffffffffffffffffffffffffffffffffffffff82169050919050565b600061179482611769565b9050919050565b6117a481611789565b81146117af57600080fd5b50565b6000813590506117c18161179b565b92915050565b600080fd5b600080fd5b6000601f19601f8301169050919050565b7f4e487b7100000000000000000000000000000000000000000000000000000000600052604160045260246000fd5b61181a826117d1565b810181811067ffffffffffffffff82111715611839576118386117e2565b5b80604052505050565b600061184c611755565b90506118588282611811565b919050565b600067ffffffffffffffff821115611878576118776117e2565b5b611881826117d1565b9050602081019050919050565b82818337600083830152505050565b60006118b06118ab8461185d565b611842565b9050828152602081018484840111156118cc576118cb6117cc565b5b6118d784828561188e565b509392505050565b600082601f8301126118f4576118f36117c7565b5b813561190484826020860161189d565b91505092915050565b600080604083850312156119245761192361175f565b5b6000611932858286016117b2565b925050602083013567ffffffffffffffff81111561195357611952611764565b5b61195f858286016118df565b9150509250929050565b6000819050919050565b61197c81611969565b82525050565b60006020820190506119976000830184611973565b92915050565b60007fffffffff0000000000000000000000000000000000000000000000000000000082169050919050565b6119d28161199d565b81146119dd57600080fd5b50565b6000813590506119ef816119c9565b92915050565b600060208284031215611a0b57611a0a61175f565b5b6000611a19848285016119e0565b91505092915050565b60008115159050919050565b611a3781611a22565b82525050565b6000602082019050611a526000830184611a2e565b92915050565b600081519050919050565b600082825260208201905092915050565b60005b83811015611a92578082015181840152602081019050611a77565b60008484015250505050565b6000611aa982611a58565b611ab38185611a63565b9350611ac3818560208601611a74565b611acc816117d1565b840191505092915050565b60006020820190508181036000830152611af18184611a9e565b905092915050565b611b0281611969565b8114611b0d57600080fd5b50565b600081359050611b1f81611af9565b92915050565b600060208284031215611b3b57611b3a61175f565b5b6000611b4984828501611b10565b91505092915050565b611b5b81611789565b82525050565b6000602082019050611b766000830184611b52565b92915050565b60008060408385031215611b9357611b9261175f565b5b6000611ba1858286016117b2565b9250506020611bb285828601611b10565b9150509250929050565b600080600060608486031215611bd557611bd461175f565b5b6000611be3868287016117b2565b9350506020611bf4868287016117b2565b9250506040611c0586828701611b10565b9150509250925092565b600060208284031215611c2557611c2461175f565b5b6000611c33848285016117b2565b91505092915050565b611c4581611a22565b8114611c5057600080fd5b50565b600081359050611c6281611c3c565b92915050565b60008060408385031215611c7f57611c7e61175f565b5b6000611c8d858286016117b2565b9250506020611c9e85828601611c53565b9150509250929050565b600067ffffffffffffffff821115611cc357611cc26117e2565b5b611ccc826117d1565b9050602081019050919050565b6000611cec611ce784611ca8565b611842565b905082815260208101848484011115611d0857611d076117cc565b5b611d1384828561188e565b509392505050565b600082601f830112611d3057611d2f6117c7565b5b8135611d40848260208601611cd9565b91505092915050565b60008060008060808587031215611d6357611d6261175f565b5b6000611d71878288016117b2565b9450506020611d82878288016117b2565b9350506040611d9387828801611b10565b925050606085013567ffffffffffffffff811115611db457611db3611764565b5b611dc087828801611d1b565b91505092959194509250565b60008060408385031215611de357611de261175f565b5b6000611df1858286016117b2565b9250506020611e02858286016117b2565b9150509250929050565b7f4e487b7100000000000000000000000000000000000000000000000000000000600052601160045260246000fd5b6000611e4682611969565b91507fffffffffffffffffffffffffffffffffffffffffffffffffffffffffffffffff8203611e7857611e77611e0c565b5b600182019050919050565b7f4e487b7100000000000000000000000000000000000000000000000000000000600052602260045260246000fd5b60006002820490506001821680611eca57607f821691505b602082108103611edd57611edc611e83565b5b50919050565b60008190508160005260206000209050919050565b60006020601f8301049050919050565b600082821b905092915050565b600060088302611f457fffffffffffffffffffffffffffffffffffffffffffffffffffffffffffffffff82611f08565b611f4f8683611f08565b95508019841693508086168417925050509392505050565b6000819050919050565b6000611f8c611f87611f8284611969565b611f67565b611969565b9050919050565b6000819050919050565b611fa683611f71565b611fba611fb282611f93565b848454611f15565b825550505050565b600090565b611fcf611fc2565b611fda818484611f9d565b505050565b5b81811015611ffe57611ff3600082611fc7565b600181019050611fe0565b5050565b601f8211156120435761201481611ee3565b61201d84611ef8565b8101602085101561202c578190505b61204061203885611ef8565b830182611fdf565b50505b505050565b600082821c905092915050565b600061206660001984600802612048565b1980831691505092915050565b600061207f8383612055565b9150826002028217905092915050565b61209882611a58565b67ffffffffffffffff8111156120b1576120b06117e2565b5b6120bb8254611eb2565b6120c6828285612002565b600060209050601f8311600181146120f957600084156120e7578287015190505b6120f18582612073565b865550612159565b601f19841661210786611ee3565b60005b8281101561212f5784890151825560018201915060208501945060208101905061210a565b8683101561214c5784890151612148601f891682612055565b8355505b6001600288020188555050505b505050505050565b60006060820190506121766000830186611b52565b6121836020830185611973565b6121906040830184611b52565b949350505050565b7f6e6f20746f6b656e000000000000000000000000000000000000000000000000600082015250565b60006121ce600883611a63565b91506121d982612198565b602082019050919050565b600060208201905081810360008301526121fd816121c1565b9050919050565b600081519050919050565b600082825260208201905092915050565b600061222b82612204565b612235818561220f565b9350612245818560208601611a74565b61224e816117d1565b840191505092915050565b600060808201905061226e6000830187611b52565b61227b6020830186611b52565b6122886040830185611973565b818103606083015261229a8184612220565b905095945050505050565b6000815190506122b4816119c9565b92915050565b6000602082840312156122d0576122cf61175f565b5b60006122de848285016122a5565b91505092915050565b60006040820190506122fc6000830185611b52565b6123096020830184611973565b939250505056fea26469706673582212202ba099a38b2350feed633be8f53139c49cfb24db5d8bb693549daf431f9a725c64736f6c63430008140033",
  "linkReferences": {},
  "deployedLinkReferences": {}
}